:020000040800F2
:10000000402000107D150008D1150008D11500080A
:10001000D1150008D1150008D11500080000000016
:10002000000000000000000000000000D1150008E2
:10003000D115000800000000D11500085510000877
:10004000D1150008D1150008D1150008D1150008F8
:10005000D1150008D1150008D1150008D1150008E8
:10006000D1150008D1150008D1150008D1150008D8
:10007000D1150008D1150008D1150008D1150008C8
:10008000F113000855110008D1150008D11500081A
:10009000D1150008D1150008D1150008D1150008A8
:1000A000D1150008D1150008D1150008D115000898
:1000B000D1150008D1150008D1150008D115000888
:1000C000D1150008D1150008D1150008D115000878
:1000D000D1150008D1150008D1150008D115000868
:1000E000D1150008D1150008D1150008D115000858
:1000F000D1150008D1150008D1150008D115000848
:10010000D1150008D1150008D1150008D115000837
:10011000D1150008D1150008D1150008D115000827
:10012000D1150008D1150008D1150008D115000817
:10013000D1150008D1150008D1150008D115000807
:10014000D1150008D1150008D1150008D1150008F7
:10015000D1150008D1150008D1150008D1150008E7
:10016000D1150008D1150008D1150008D1150008D7
:10017000D1150008D1150008D1150008D1150008C7
:10018000D1150008D115000810B5054C237833B9F6
:10019000044B13B10448AFF300800123237010BD5A
:1001A000780B002000000000F48A000808B5034B1B
:1001B0001BB103490348AFF3008008BD00000000F5
:1001C0007C0B0020F48A0008A3F5803A704700BF3A
:1001D000174B002B08BF134B9D46FFF7F5FF00217F
:1001E0008B460F461348144A121A08F039FC0E4B7E
:1001F000002B00D098470D4B002B00D098470020D3
:10020000002104000D000D48002802D00C48AFF377
:10021000008008F0F3FB2000290000F0AFFE08F09A
:10022000D9FB00BF00000800000000000000000033
:1002300040200010780B00200C2600200000000059
:100240000000000008B54021114800F0C7F803463F
:10025000002B01D1012318E00D4B1B68184600F05C
:10026000CBF803460B4A13600A4B1B680A4A13601B
:10027000084B1B680133094A1360094B00221A809E
:10028000054B1B6800221A700023184608BD00BFEA
:10029000940B0020980B0020A40B00209C0B002046
:1002A000A00B002008B500F095F803461A4601237C
:1002B0009A4201D0012302E0FFF7C4FF034618462B
:1002C00008BD000008B50D4B1A680D4B1B880133A3
:1002D0009BB21946104600F097F803461A460023D1
:1002E0009A4201D1032307E0FFF7ACFF0346002B3E
:1002F00001D0032300E00023184608BD940B002022
:10030000A00B002000B587B00190009100238DF86C
:100310001730019B04933DE0234B1B883A2B0BD1F4
:10032000FFF7D0FF03468DF817309DF81730002BEC
:1003300002D09DF8173032E01B4B1B88C3F13A0303
:10034000ADF80E30BDF80E30009A9A4202D8009BEC
:100350009BB201E0BDF80E300293144B1B68029A69
:100360000499184608F06EFB009A029BD31A00937A
:10037000029B9AB20C4B1B8813449AB20A4B1A8008
:10038000049A029B13440493084B1A68029B13447B
:10039000064A1360009B002BBED19DF8173018460B
:1003A00007B05DF804FB00BFA00B00209C0B0020F1
:1003B00008B5074B1B6801221A70FFF783FF03463D
:1003C000032B01D1032300E00023184608BD00BF22
:1003D000A40B0020012318467047000082B0019052
:1003E0000B46ADF80230019B024A1A600123184601
:1003F00002B07047A80B002082B00190014B184654
:1004000002B07047AD0B002000B583B001900B46E1
:10041000ADF80230BDF802301A460221019803F00F
:1004200023FD0346DBB2184603B05DF804FB00B5BC
:1004300085B0ADF80400084611461A4603468DF80B
:1004400003300B468DF8023013468DF801300DF164
:1004500003030121184600F073FC03468DF80F30AA
:100460009DF80F30002B02D09DF80F3049E09DF829
:1004700004308DF80E300DF10E030121184600F006
:100480005FFC03468DF80F309DF80F30002B02D033
:100490009DF80F3035E09DF805308DF80E300DF1E8
:1004A0000E030121184600F04BFC03468DF80F3077
:1004B0009DF80F30002B02D09DF80F3021E00DF198
:1004C00002030121184600F03BFC03468DF80F3073
:1004D0009DF80F30002B02D09DF80F3011E00DF188
:1004E00001030121184600F02BFC03468DF80F3064
:1004F0009DF80F30002B02D09DF80F3001E09DF8E1
:100500000F30184605B05DF804FB00B583B0012339
:100510008DF806300DF106030121184600F010FC9D
:1005200003468DF807309DF80730002B02D09DF868
:1005300007300DE000F05AFC03468DF807309DF8B7
:100540000730002B02D09DF8073001E09DF80730FE
:10055000184603B05DF804FB10B582B005238DF892
:1005600006300DF106030121184600F0E9FB0346B1
:100570008DF807309DF80730002B02D09DF807302A
:1005800054E000238DF806300DF1060301211846D2
:1005900000F0D6FB03468DF807309DF80730002B9E
:1005A00002D09DF8073041E0224B5B6BDAB2224B60
:1005B0001A700121204800F0C3FB03468DF8073074
:1005C0009DF80730002B02D09DF807302EE01A4B23
:1005D0001B78002B1CD0174B5B6BD9B2174B5B6B96
:1005E000DCB2174B1A785B781B021343002063F3CD
:1005F0000F0023460A460121FFF719FF03468DF835
:1006000007309DF80730002B02D09DF807300DE031
:1006100000F0ECFB03468DF807309DF80730002B07
:1006200002D09DF8073001E09DF80730184602B06F
:1006300010BD00BF98250020E80B0020A48A000808
:100640009425002010B582B000238DF807300023D8
:100650008DF806300DF106030121184600F070FBFD
:1006600003468DF807309DF80730002B02D09DF827
:10067000073081E0424B1B68D9B2424B1B68DCB2A9
:10068000414B1A785B781B021343002063F30F0081
:1006900023460A460021FFF7CAFE03468DF80730BD
:1006A0009DF80730002B02D09DF8073064E0344BF2
:1006B0005B68D9B2334B5B68DCB2334B9A78DB783A
:1006C0001B021343002063F30F0023460A46012157
:1006D000FFF7ADFE03468DF807309DF80730002B7D
:1006E00002D09DF8073047E0254B9B68D9B2254BD7
:1006F0009B68DCB2244B1A795B791B021343002000
:1007000063F30F0023460A460221FFF790FE0346DB
:100710008DF807309DF80730002B02D09DF8073088
:100720002AE0174BDB68D9B2164BDB68DCB2164BFC
:100730009A79DB791B021343002063F30F002346F1
:100740000A460321FFF773FE03468DF807309DF834
:100750000730002B02D09DF807300DE000F046FB7B
:1007600003468DF807309DF80730002B02D09DF826
:10077000073001E09DF80730184602B010BD00BFF9
:1007800098250020A48A0008E425002010B582B036
:1007900000238DF8073001238DF806300DF1060394
:1007A0000121184600F0CCFA03468DF807309DF879
:1007B0000730002B02D09DF8073081E0424B1B6BC5
:1007C000D9B2424B1B6BDCB2414B9A7EDB7E1B02E3
:1007D0001343002063F30F0023460A460A21FFF764
:1007E00026FE03468DF807309DF80730002B02D017
:1007F0009DF8073064E0344B1B69D9B2334B1B6959
:10080000DCB2334B1A7A5B7A1B021343002063F38A
:100810000F0023460A460421FFF709FE03468DF820
:1008200007309DF80730002B02D09DF8073047E0D5
:10083000254B5B69D9B2254B5B69DCB2244B9A7AB4
:10084000DB7A1B021343002063F30F0023460A46A2
:100850000521FFF7ECFD03468DF807309DF80730C2
:10086000002B02D09DF807302AE0174B9B69D9B2C4
:10087000164B9B69DCB2164B1A7B5B7B1B02134346
:10088000002063F30F0023460A460621FFF7CFFD41
:1008900003468DF807309DF80730002B02D09DF8F5
:1008A00007300DE000F0A2FA03468DF807309DF8FE
:1008B0000730002B02D09DF8073001E09DF807308B
:1008C000184602B010BD00BF98250020A48A000879
:1008D000E425002010B582B000238DF807300223F4
:1008E0008DF806300DF106030121184600F028FAB4
:1008F00003468DF807309DF80730002B02D09DF895
:10090000073064E0334BDB69D9B2334BDB69DCB2CF
:10091000324B9A7BDB7B1B021343002063F30F00F7
:1009200023460A460721FFF782FD03468DF807306C
:100930009DF80730002B02D09DF8073047E0254B8B
:100940001B6AD9B2244B1B6ADCB2244B1A7C5B7C39
:100950001B021343002063F30F0023460A460821BD
:10096000FFF765FD03468DF807309DF80730002B33
:1009700002D09DF807302AE0164B5B6AD9B2164BBD
:100980005B6ADCB2154B9A7CDB7C1B0213430020B4
:1009900063F30F0023460A460921FFF748FD03468B
:1009A0008DF807309DF80730002B02D09DF80730F6
:1009B0000DE000F01BFA03468DF807309DF8073074
:1009C000002B02D09DF8073001E09DF80730184653
:1009D00002B010BD98250020A48A0008E42500205C
:1009E00010B582B000238DF8073003238DF8063050
:1009F0000DF106030121184600F0A2F903468DF817
:100A000007309DF80730002B02D09DF8073064E0D6
:100A1000334B93F82810334B93F82840324B1A7D10
:100A20005B7D1B021343002063F30F0023460A463D
:100A30000D21FFF7FCFC03468DF807309DF80730C9
:100A4000002B02D09DF8073047E0254B93F8291082
:100A5000244B93F82940244B9A7DDB7D1B021343E2
:100A6000002063F30F0023460A460C21FFF7DFFC4A
:100A700003468DF807309DF80730002B02D09DF813
:100A800007302AE0164BDB6AD9B2164BDB6ADCB2C0
:100A9000154B1A7E5B7E1B021343002063F30F008D
:100AA00023460A460B21FFF7C2FC03468DF80730A8
:100AB0009DF80730002B02D09DF807300DE000F0C4
:100AC00095F903468DF807309DF80730002B02D0CA
:100AD0009DF8073001E09DF80730184602B010BDC0
:100AE00098250020A48A0008E425002010B582B0D3
:100AF00000238DF8073004238DF806300DF106032E
:100B00000121184600F01CF903468DF807309DF8C6
:100B10000730002B02D09DF8073085E0444BDB6B9B
:100B2000D9B2444BDB6BDCB2434B1A7F5B7F1B02B9
:100B30001343002063F30F0023460A460E21FFF7FC
:100B400076FC03468DF807309DF80730002B02D065
:100B50009DF8073068E0364B1B6CD9B2354B1B6CE7
:100B6000DCB2354B9A7FDB7F1B021343002063F31B
:100B70000F0023460A460F21FFF759FC03468DF864
:100B800007309DF80730002B02D09DF807304BE06E
:100B9000274B5B6CD9B2274B5B6CDCB2264B93F8CE
:100BA000202093F821301B021343002063F30F0031
:100BB00023460A461021FFF73AFC03468DF807301A
:100BC0009DF80730002B02D09DF807302CE0184B21
:100BD0009B6CD9B2174B9B6CDCB2174B93F822205D
:100BE00093F823301B021343002063F30F002346C6
:100BF0000A461121FFF71BFC03468DF807309DF8CC
:100C00000730002B02D09DF807300DE000F0EEF821
:100C100003468DF807309DF80730002B02D09DF871
:100C2000073001E09DF80730184602B010BD00BF44
:100C300098250020A48A0008E425002000B583B090
:100C400006238DF8063006F02DFDFFF75EFC034607
:100C50008DF807309DF80730002B02D09DF8073043
:100C60005EE0FFF779FC03468DF807309DF807300A
:100C7000002B02D09DF8073052E0FFF7E3FC03465B
:100C80008DF807309DF80730002B02D09DF8073013
:100C900046E0FFF77BFD03468DF807309DF80730EF
:100CA000002B02D09DF807303AE0FFF713FE034611
:100CB0008DF807309DF80730002B02D09DF80730E3
:100CC0002EE0FFF78DFE03468DF807309DF80730C4
:100CD000002B02D09DF8073022E0FFF707FF034604
:100CE0008DF807309DF80730002B02D09DF80730B3
:100CF00016E00DF106030121184600F021F8034625
:100D00008DF807309DF80730002B02D09DF8073092
:100D100006E000F06BF803468DF807309DF80730C9
:100D2000184603B05DF804FB08B5FFF787FF0346DC
:100D3000002B01D0012300E00023184608BD00006D
:100D400000B587B00190009100238DF817301B2368
:100D50000493009B0393144B1B881A46039B134474
:100D6000049A9A4205D202238DF817309DF8173065
:100D700016E00E4B1B68039A0199184607F062FEB5
:100D8000039B9AB2084B1B8813449AB2064B1A80F5
:100D9000064B1A68039B1344044A13609DF81730EE
:100DA000184607B05DF804FBF40B0020F00B0020A0
:100DB00008B520210A4800F049F80346002B01D16C
:100DC00001230BE0064B1B68184600F04DF8034664
:100DD000044A1360044B00221A800023184608BD01
:100DE000EC0B0020F00B0020F40B002008B50C4B9E
:100DF0001B680C4A12881146184600F03DF803465D
:100E00001A4600239A4201D1022307E0FFF7D0FFE0
:100E10000346002B01D0022300E00023184608BD42
:100E2000EC0B0020F40B002008B500F00CF8034692
:100E30001A4601239A4201D0012302E0FFF7B8FFCE
:100E40000346184608BD01231846704782B001903A
:100E50000B46ADF80230019B024A1A600123184686
:100E600002B07047F80B002082B00190014B184689
:100E700002B07047FD0B002000B583B001900B4617
:100E8000ADF80230BDF802301A460321019802F095
:100E9000EBFF0346DBB2184603B05DF804FB00002D
:100EA00084B0019000238DF80F3000238DF80E30B0
:100EB0000F238DF80D30019BDB78002B47D02D4B95
:100EC000DB68DB431B0ADBB203F007038DF80F304E
:100ED0009DF80F30C3F104038DF80E309DF80D20FE
:100EE0009DF80F3042FA03F38DF80D30019B5B78CB
:100EF0001A469DF80E3002FA03F38DF80F30019B6D
:100F00009A789DF80D301340DAB29DF80F301343F4
:100F10008DF80F309DF80F301B018DF80F30164AF9
:100F2000019B1B7813449DF80F2083F80023019B3D
:100F30001B7803F01F031049019A12785209D2B2AC
:100F40001046012202FA03F341F820300FE0019B22
:100F50001B7803F01F030849019A12785209D2B294
:100F6000104601229A4000F1200341F8232000BFDF
:100F700004B0704700ED00E000E100E000B585B08E
:100F800000238DF80F30012300930023029301F01A
:100F900047F8002301930199029802F022FF0346CB
:100FA0008DF80F309DF90F30002B16D000BF009B3D
:100FB000002BFCD111E002F0C3FE03468DF80F3088
:100FC0009DF90F30002B08D09DF90F30B3F1FF3F92
:100FD00003D000BF009B002BFCD1009B002BEAD16B
:100FE0009DF90F30184605B05DF804FB82B0002370
:100FF0000193134B1B78002B11D1124B1B686FF020
:101000007F421A60104B1B6807221A600F4B1B6847
:101010006FF07F421A600A4B01221A7007E00B4BF7
:101020001B681B68C3F1FF1303F57F430193084B53
:101030001B68019A13440193019B184602B0704744
:10104000180C0020000000200800002004000020F0
:101050001C0C0020034B1B6803F18073014A1360D2
:1010600000BF70471C0C002000B583B001900091B8
:10107000134B144A1A60124B00229A80124B134AE7
:101080001A60114B00229A800F4B0022DA800E4B1F
:1010900000225A6401210E4800F042FE01214FF463
:1010A000003000F059FE00F0B3F800F023F94FF4DF
:1010B000E12000F0AFF90123184603B05DF804FB0E
:1010C00024180020240C00202C18002024140020B8
:1010D0000100200000B585B00390029101920093B9
:1010E00000BF194800F0B7FB0346002BF9D1019B64
:1010F000B3F5806F28BF4FF480630193134B1B68D7
:10110000019A0299184607F09DFC019B9BB21A4672
:101110000E4B9A610D4B1B681A460C4B1A610C4919
:10112000094800F025FB01221021074800F0AAFB26
:101130000121054800F06EFB009B019A1A60002314
:10114000184605B05DF804FBA06002402C18002092
:101150003418002008B50649064800F0CBFB0346CA
:10116000002B03D00249034800F01AFC00BF08BD61
:1011700000802020A060024000B589B00390029159
:101180000192009300F00EF903461A46019B934228
:1011900033D81E4B9B88ADF816301C4B1B6804934C
:1011A000029B06930023079313E0BDF81630049AC0
:1011B0001A44069B591C069112781A70BDF8163015
:1011C00001339BB2C3F30A03ADF81630079B01331A
:1011D0000793079B019A9A42E7D80C4B9B889AB2D7
:1011E000019B9BB213449BB2C3F30A039AB2074B11
:1011F0009A80009B019A1A6002E0009B00221A600C
:101200000023184609B05DF804FB00BF2418002035
:1012100000B593B0324800F0DDF900BF304800F06F
:101220001AFB0346002BF9D14FF000630193002312
:1012300004932C4B1B6803934FF4006305932A4BD4
:101240000293002306934FF48063079300230893CF
:10125000002309934FF480730A934FF440330B93A8
:1012600000230C9303230D9300230E9300230F936D
:1012700001AB19461A4800F07BFA10238DF8403074
:1012800000238DF8413000238DF8423001238DF882
:10129000433010AB1846FFF703FE0122102110481F
:1012A00000F0F0FA01210E4800F0B4FA0F4B119350
:1012B00000BF0B4800F0CFFA0346012B04D0119B6E
:1012C0005A1E1192002BF4DC119B002B04DC084BFE
:1012D0004FF0FF321A60FEE700BF13B05DF804FB69
:1012E00088600240241800200444004040420F005F
:1012F000200C002000B583B0274800F06BF900BF38
:10130000254800F0A8FA0346002BF9D1234B4FF0F3
:1013100000629A60214B40225A61204B1B681A469A
:101320001E4B1A611D4B01229A611C4B1C4ADA604C
:101330001A4B0022DA61194B4FF480621A62174B84
:1013400000225A62154B00229A62144B0022DA6284
:10135000124B4FF440321A63104B00225A630F4B6A
:1013600003229A630D4B0022DA630C4B00221A64AD
:1013700011238DF8043000238DF8053000238DF8FB
:10138000063001238DF8073001AB1846FFF788FDC2
:1013900000BF03B05DF804FBA06002402C180020E1
:1013A0000444004000B583B00F4800F04CFA0346F7
:1013B000C3F5006301930D4B9B889BB21A46019BBA
:1013C000934206DB094B9B889BB21A46019B9B1AF2
:1013D00006E0064B9B889BB2C3F50062019B134459
:1013E000184603B05DF804FB886002402418002012
:1013F00008B50649064800F07DFA0346002B03D0E5
:101400000249034800F0CCFA00BF08BD0088002064
:101410008860024000B589B0019006AB184600F024
:1014200073FB0C23069302238DF81C3000238DF8E8
:101430001E3001238DF81F3002238DF81D3006ABBE
:1014400019461C4800F0D6FA07220221194800F07C
:1014500070FB07220321174800F06BFB02AB184614
:1014600000F04EFD019B02930023ADF80C300023E9
:10147000ADF80E300023ADF810300023ADF8143075
:101480000C23ADF8123002AB19460B4800F080FC7B
:1014900001224021084800F068FD01228021064811
:1014A00000F063FD0121044800F042FD00BF09B0D7
:1014B0005DF804FB000002400044004000B58BB022
:1014C00003900291019200230993029B08934FF02D
:1014D000FF3307931AE0019A079B934228BF1346F4
:1014E000069305AB069A08990398FFF7F3FD099058
:1014F000099BB3F1FF3F01D1099B0BE0059B019ACA
:10150000D31A0193059B089A13440893019B002B5F
:10151000E1D1099B18460BB05DF804FB00B58BB018
:1015200003900291019200230993029B08934FF0CC
:10153000FF3307931AE0019A079B934228BF134693
:10154000069305AB069A08990398FFF715FE0990D4
:10155000099BB3F1FF3F01D1099B0BE0059B019A69
:10156000D31A0193059B089A13440893019B002BFF
:10157000E1D1099B18460BB05DF804FB00B583B0C0
:101580000E4B01930E4B009307E0019A131D01933C
:10159000009B191D009112681A60009B094A934232
:1015A000F3D3094809494FF000028842B8BF40F818
:1015B000042BFADB00F000FDFEF70AFEFC8A0008AF
:1015C00000000020780B0020780B00200C26002063
:1015D000FEE7000082B00190019B1B6823F001022E
:1015E000019B1A60019B00221A60019B00225A6035
:1015F000019B00229A60019B0022DA60019B00227D
:101600001A61019B21225A61019B444A934203D1F2
:10161000434B3D229A607EE0019B424A934204D1B3
:101620003F4B4FF474629A6075E0019B3E4A9342CF
:1016300004D13B4B4FF474129A606CE0019B3B4A1F
:10164000934204D1364B4FF074629A6063E0019B81
:10165000374A934203D1324B364ADA605BE0019B52
:10166000354A934203D12E4B344ADA6053E0019B52
:10167000334A934203D12A4B324ADA604BE0019B52
:10168000314A934204D1264B4FF03D52DA6042E09A
:10169000019B2E4A934203D12D4B3D229A603AE0A2
:1016A000019B2C4A934204D1294B4FF474629A60F7
:1016B00031E0019B284A934204D1254B4FF4741228
:1016C0009A6028E0019B254A934204D1204B4FF0B9
:1016D00074629A601FE0019B214A934203D11C4B24
:1016E000144ADA6017E0019B1E4A934203D1184B5B
:1016F000124ADA600FE0019B1B4A934203D1144B5C
:10170000104ADA6007E0019B184A934203D1104B5C
:101710004FF03D52DA6000BF02B0704710600240E7
:101720000060024028600240406002405860024071
:10173000706002403D00002088600240400F0020A1
:10174000A060024000003D20B860024010640240EA
:101750000064024028640240406402405864024031
:101760007064024088640240A0640240B864024091
:1017700084B00190009100230393019B1B680393A5
:10178000039A234B13400393009B1A68009BDB686A
:101790001A43009B5B691A43009B9B691A43009B99
:1017A000DB691A43009B1B6A1A43009B5B6A1A435E
:1017B000009B9B6A1A43009B5B6B1A43009B9B6BCD
:1017C0001343039A13430393019B039A1A60019BEB
:1017D0005B690393039B23F007030393009BDA6A7F
:1017E000009B1B6B1343039A13430393019B039AC0
:1017F0005A61009B1A69019B5A60009B5A68019BC1
:101800009A60009B9A68019BDA6000BF04B0704741
:101810003F801CF082B001900B468DF803309DF89C
:101820000330002B06D0019B1B6843F00102019B93
:101830001A6005E0019B1B6823F00102019B1A60FE
:1018400000BF02B0704782B00190019B5B689BB201
:10185000184602B0704784B0019000238DF80F3015
:10186000019B1B6803F00103002B03D001238DF8BB
:101870000F3002E000238DF80F309DF80F3018462E
:1018800004B0704784B00390029113468DF807307E
:10189000029B03F08003002B10D09DF80730002B33
:1018A00006D0039B5B6943F08002039B5A6105E00D
:1018B000039B5B6923F08002039B5A61029B802B90
:1018C00015D09DF80730002B08D0039B1A68029BA7
:1018D00003F01E031A43039B1A6008E0039B1A6877
:1018E000029B03F01E03DB431A40039B1A6000BFF8
:1018F00004B0704786B00190009100238DF8173036
:101900000023039300230293019B224A934202D8AF
:10191000214B049301E0214B0493009B23F0F0231F
:1019200023F0C313002B0AD0009BDB0A03F01E0335
:101930000393019B1B68039A1340029304E0019BED
:101940005B6903F080030293009B03F00053002BBC
:1019500003D0049B5B68039302E0049B1B68039322
:10196000039B23F0F02323F082130393039A009B3D
:101970001340002B06D0029B002B03D001238DF8CF
:10198000173002E000238DF817309DF81730184605
:1019900006B070470F6402400060024000640240DD
:1019A00084B001900091019B0F4A934202D80F4BE3
:1019B000039301E00E4B0393009B03F00053002BB5
:1019C00007D0009B23F0F02323F08213039AD36007
:1019D00006E0009B23F0F02323F08213039A936028
:1019E00000BF04B0704700BF0F64024000600240B7
:1019F0000064024086B0019000910023059300230B
:101A00000493002303930023059376E00122059BB2
:101A100002FA03F30493009B1B68049A1340039398
:101A2000039A049B9A4265D1019B1A68059B5B004F
:101A3000032101FA03F3DB431A40019B1A60019B67
:101A40001A68009B1B791946059B5B0001FA03F39A
:101A50001A43019B1A60009B1B79012B03D0009B4A
:101A60001B79022B2ED1019B9A68059B5B000321F9
:101A700001FA03F3DB431A40019B9A60019B9A68C9
:101A8000009B5B791946059B5B0001FA03F31A433F
:101A9000019B9A60019B5A68059B9BB219460123E2
:101AA0008B40DB431A40019B5A60019B5B68009AA4
:101AB00092791146059A92B201FA02F292B21A4351
:101AC000019B5A60019BDA68059B9BB25B00032176
:101AD00001FA03F3DB431A40019BDA60019BDA68E9
:101AE000009BDB791946059B5B0001FA03F31A435F
:101AF000019BDA60059B01330593059B0F2B85D96C
:101B000000BF00BF06B0704782B00190019B4FF646
:101B1000FF721A60019B00221A71019B00225A7108
:101B2000019B00229A71019B0022DA7100BF02B072
:101B3000704784B001900B46ADF8023013468DF823
:101B4000013000230393002302939DF80120BDF888
:101B5000023003F007039B0002FA03F30393BDF87E
:101B60000230DB089BB21A46019B083253F8222050
:101B7000BDF8023003F007039B000F2101FA03F3C5
:101B8000DB43BDF80210C90889B2084602EA030126
:101B9000019B00F1080243F82210BDF80230DB0877
:101BA0009BB21A46019B083253F82230039A134322
:101BB0000293BDF80230DB089BB21A46019B083243
:101BC000029943F8221000BF04B0704788B001901A
:101BD0000023069300230593002307930223049315
:101BE0000023039302230293494B9B6803F00C03E9
:101BF0000693069B082B11D0069B082B44D8069B06
:101C0000002B03D0069B042B04D03DE0019B414AEE
:101C10001A603DE0019B404A1A6039E03C4B5B682A
:101C20009B0D03F001030393394B5B6803F03F0303
:101C30000293039B002B0CD0374A029BB2FBF3F3B9
:101C4000334A52689209C2F3080202FB03F3079376
:101C50000BE0304A029BB2FBF3F32D4A5268920923
:101C6000C2F3080202FB03F30793294B5B681B0CCA
:101C700003F0030301335B000493079A049BB2FB58
:101C8000F3F2019B1A6003E0019B224A1A6000BF35
:101C90001F4B9B6803F0F0030693069B1B090693FA
:101CA0001E4A069B13441B78DBB20593019B1A68FE
:101CB000059BDA40019B5A60154B9B6803F4E05387
:101CC0000693069B9B0A0693144A069B13441B78B3
:101CD000DBB20593019B5A68059BDA40019B9A6031
:101CE0000B4B9B6803F460430693069B5B0B0693C8
:101CF0000A4A069B13441B78DBB20593019B5A6882
:101D0000059BDA40019BDA6000BF08B0704700BF56
:101D1000003802400024F40000127A000C00002079
:101D200082B001900B468DF803309DF80330002BF4
:101D300006D0084B1A6B0749019B13430B6306E05F
:101D4000044B1A6B019BDB43024913400B6300BF3A
:101D500002B070470038024082B001900B468DF807
:101D600003309DF80330002B06D0084B1A6C07494E
:101D7000019B13430B6406E0044B1A6C019BDB438D
:101D8000024913400B6400BF02B0704700380240A4
:101D900000B58BB0019000910023099300230893B4
:101DA0000023079300230693019B1B8A9BB2099390
:101DB000099B23F440530993009BDB881A46099B37
:101DC00013430993099B9AB2019B1A82019B9B8939
:101DD0009BB20993099B23F4B05323F00C0309939E
:101DE000009B9A88009B1B8913439AB2009B5B89D6
:101DF00013439BB21A46099B13430993099B9AB25A
:101E0000019B9A81019B9B8A9BB20993099B23F4B6
:101E100040730993009B9B891A46099B13430993BE
:101E2000099B9AB2019B9A8202AB1846FFF7CEFE3D
:101E3000019B304A934203D0019B2F4A934202D127
:101E4000059B089301E0049B0893019B9B899BB22F
:101E50001BB2002B0CDA089A13469B0013449A001D
:101E60001A44009B1B685B00B2FBF3F307930BE083
:101E7000089A13469B0013449A001A44009B1B685F
:101E80009B00B2FBF3F30793079B1C4AA2FB0323BF
:101E90005B091B010993099B1B09642202FB03F3E5
:101EA000079AD31A0693019B9B899BB21BB2002B06
:101EB0000CDA069BDB003233104AA2FB03235B09DA
:101EC00003F00703099A134309930BE0069B1B01D8
:101ED00032330A4AA2FB03235B0903F00F03099A7A
:101EE00013430993099B9AB2019B1A8100BF0BB05F
:101EF0005DF804FB00100140001401401F85EB5108
:101F000082B00190019B4FF416521A60019B00228F
:101F10009A80019B0022DA80019B00221A81019B9A
:101F20000C225A81019B00229A8100BF02B07047A7
:101F300082B001900B468DF803309DF80330002BE2
:101F400008D0019B9B899BB243F400539AB2019B3A
:101F50009A8107E0019B9B899BB223F400539AB2BC
:101F6000019B9A8100BF02B0704782B001900B467E
:101F7000ADF8023013468DF801309DF80130002B8A
:101F800009D0019B9B8A9AB2BDF8023013439AB2E2
:101F9000019B9A820AE0019B9B8A9AB2BDF80230AB
:101FA000DB439BB213409AB2019B9A8200BF02B0FE
:101FB000704782B00190FEE708B5164BD3F8883021
:101FC000144A43F47003C2F88830134B1B68124A5A
:101FD00043F001031360104B00229A600E4B1B6804
:101FE0000D4A23F0847323F4803313600A4B0B4AA9
:101FF0005A60094B1B68084A23F480231360064B80
:102000000022DA6000F088F8024B4FF000629A601C
:1020100000BF08BD00ED00E0003802401030002491
:1020200086B0002304930023059302230393002327
:10203000029302230193334B9B6803F00C03049338
:10204000049B082B11D0049B082B44D8049B002B25
:1020500003D0049B042B04D03DE02B4B2B4A1A6089
:102060003DE0294B2A4A1A6039E0264B5B689B0DFC
:1020700003F001030293234B5B6803F03F030193DA
:10208000029B002B0CD0224A019BB2FBF3F31D4AAA
:1020900052689209C2F3080202FB03F305930BE0B6
:1020A0001A4A019BB2FBF3F3164A52689209C2F333
:1020B000080202FB03F30593124B5B681B0C03F051
:1020C000030301335B000393059A039BB2FBF3F315
:1020D0000D4A136003E00C4B0C4A1A6000BF094B19
:1020E0009B681B0903F00F030A4AD35CDBB204931D
:1020F000054B1A68049B22FA03F3034A136000BFDE
:1021000006B07047003802401C0000200024F40094
:1021100000127A002000002082B0002301930023E7
:102120000093344B1B68334A43F480331360314BC4
:102130001B6803F400330093019B01330193009B60
:10214000002B03D1019BB3F5A06FF0D1294B1B6885
:1021500003F40033002B02D00123009301E000239D
:102160000093009B012B42D1224B1B6C214A43F070
:1021700080531364204B1B681F4A43F48043136051
:102180001C4B1C4A9B6893601A4B9B68194A43F48A
:1021900000439360174B9B68164A43F4A053936027
:1021A000144B164A5A60134B1B68124A43F0807353
:1021B000136000BF0F4B1B6803F00073002BF9D0B6
:1021C0000F4B40F205621A600A4B9B68094A23F0E4
:1021D00003039360074B9B68064A43F00203936036
:1021E00000BF044B9B6803F00C03082BF9D100BF20
:1021F00002B07047003802400070004008544007A9
:10220000003C024008B54021114801F0C1FD0346E1
:10221000002B01D1012318E00D4B1B68184601F07B
:10222000C5FD03460B4A13600A4B1B680A4A13603C
:10223000084B1B680133094A1360094B00221A80BE
:10224000054B1B6800221A700023184608BD00BF0A
:102250007418002078180020841800207C180020B2
:102260008018002008B501F08FFD03461A460123AF
:102270009A4201D0012302E0FFF7C4FF034618464B
:1022800008BD000008B50D4B1A680D4B1B880133C3
:102290009BB21946104601F091FD03461A460023F1
:1022A0009A4201D1032307E0FFF7ACFF0346002B5E
:1022B00001D0032300E00023184608BD7418002055
:1022C0008018002000B587B00190009100238DF8A0
:1022D0001730019B04933DE0234B1B883A2B0BD115
:1022E000FFF7D0FF03468DF817309DF81730002B0D
:1022F00002D09DF8173032E01B4B1B88C3F13A0324
:10230000ADF80E30BDF80E30009A9A4202D8009B0C
:102310009BB201E0BDF80E300293144B1B68029A89
:102320000499184606F08EFB009A029BD31A00937C
:10233000029B9AB20C4B1B8813449AB20A4B1A8028
:10234000049A029B13440493084B1A68029B13449B
:10235000064A1360009B002BBED19DF8173018462B
:1023600007B05DF804FB00BF801800207C18002037
:1023700000B589B00190009100238DF81B30002337
:102380000793019B059344E0264B1B88002B35D017
:10239000244B1B881A46009B934202D8009B9BB299
:1023A00001E0204B1B88ADF81230079B059A1344BF
:1023B0001D4A1168BDF81220184606F043FB194B60
:1023C0001A88BDF81230D31A9AB2164B1A80164BDF
:1023D0001A68BDF812301344134A1360BDF8123066
:1023E000009AD31A0093009B002B02D19DF81B305A
:1023F00014E0BDF81230079A1344079309490A48BC
:1024000001F06CFD0390039BB3F1FF3F01D1012369
:1024100004E0009B002BB7D19DF81B30184609B093
:102420005DF804FB881800208C18002000B583B0EC
:1024300003468DF807309DF80730002B04D00A4B77
:102440001B6802221A7003E0074B1B6801221A70F6
:10245000FFF718FF0346032B01D1032300E00023FD
:10246000184603B05DF804FB8418002008B5FEF799
:10247000BDFD0246044B1B68D21A044B1B68134473
:10248000024A136000BF08BD941800209018002075
:1024900008B5FEF7ABFD0346014A136000BF08BD57
:1024A0009418002000B583B00190019800F032F834
:1024B000FFF7EEFF00BF03B05DF804FB00B583B08B
:1024C0000190FFF7D3FF019800F042F800BF03B07E
:1024D0005DF804FB00B583B00190019A0C210A4815
:1024E00000F0BDF8019B01331A460C21074800F0AB
:1024F000B6F8019B02331A460C21054800F0AFF8EC
:1025000000BF03B05DF804FBA4180020B018002041
:10251000BC18002084B00190019B002B04D0019BCB
:10252000032B01D8019B00E000230393039B002BA6
:1025300006D0039B013B044A1268044941F823205A
:1025400000BF04B0704700BF90180020981800200A
:1025500086B00190019B002B04D0019B032B01D876
:10256000019B00E000230593059B002B34D0059BC5
:10257000013B0593059B9B00194A13440493194B97
:102580001A681949059B51F82330D31A0393049B09
:102590001B68039A9A4202D9049B039A1A60059B0E
:1025A0009B00124A13440493049B1A68039B1A4429
:1025B000049B1B689A420FD9049B1A68039B1A4418
:1025C000049B1A60059B9B00094A13440493049BD7
:1025D0001B685A1C049B1A6000BF06B0704700BFFE
:1025E000A41800209018002098180020B01800208F
:1025F000BC18002000B583B001900198FFF752FF8E
:1026000000BF03B05DF804FB00B583B001900198F2
:10261000FFF754FF00BF03B05DF804FB00B583B0C3
:102620000190019B03331846FFF754FF00BF03B02E
:102630005DF804FB00BF704708B50120FFF7EEFF0F
:1026400000BF08BD00BF704782B00190019B002B06
:1026500001D0022300E00023184602B0704700B505
:1026600085B003900291019202AB04211846FDF758
:1026700049FE0346002B00D0FEE701AB04211846BB
:10268000FDF740FE0346002B00D0FEE7029B1946F3
:102690000398FDF737FE0346002B00D0FEE700BF8E
:1026A00005B05DF804FB00B583B007238DF8073053
:1026B0000DF1070301211846FFF704FE0346002B26
:1026C00001D0032320E000238DF807300DF107032C
:1026D00001211846FFF7F6FD0346002B01D0032326
:1026E00012E008238DF807309DF807308DF8073089
:1026F0000DF1070301211846FFF7E4FD0346002B07
:1027000001D0032300E00023184603B05DF804FB6A
:1027100000B585B0019000238DF80F30019B002B90
:1027200008D10120FFF766FF04F08CFD0120FFF7C0
:102730006BFF02E002238DF80F309DF80F30184632
:1027400005B05DF804FB00B585B0019000238DF85D
:102750000F30019B002B02D1FFF76CFF02E0022338
:102760008DF80F309DF80F30184605B05DF804FB6A
:1027700084B0019000238DF80F30019B002B02D014
:1027800002238DF80F309DF80F30184604B07047C3
:1027900084B0019000238DF80F30019B002B02D0F4
:1027A00002238DF80F309DF80F30184604B07047A3
:1027B000A6B00390019200930B468DF80B300023D6
:1027C0008DF89730009B00221A60039B002B05D0E8
:1027D00002238DF897309DF8973027E29DF80B3053
:1027E000032B00F02181082B40F01A827D4B1B68DF
:1027F000002B40F0F380002324937B4B23937B4AF0
:10280000249B082142F83310249B5A1C2492774AB7
:10281000DB001344239A5A60754B2293734A249B1E
:10282000082142F83310249B5A1C24926F4ADB0083
:102830001344229A5A606F4B21936C4A249B0821BF
:1028400042F83310249B5A1C2492684ADB0013443C
:10285000219A5A60684B2093644A249B082142F8CD
:102860003310249B5A1C2492604ADB001344209AA4
:102870005A60624B1F935D4A249B082142F8331033
:10288000249B5A1C2492594ADB0013441F9A5A6015
:102890005B4B1E93554A249B082142F83310249B1E
:1028A0005A1C2492514ADB0013441E9A5A60554B1D
:1028B0001D934E4A249B082142F83310249B5A1C36
:1028C00024924A4ADB0013441D9A5A604E4B1C93D3
:1028D000464A249B082142F83310249B5A1C249218
:1028E000424ADB0013441C9A5A60484B1B933F4AF0
:1028F000249B082142F83310249B5A1C24923B4A03
:10290000DB0013441B9A5A60414B1A93374A249BAD
:10291000082142F83310249B5A1C2492334ADB00CE
:1029200013441A9A5A603B4B1993304A249B08214E
:1029300042F83310249B5A1C24922C4ADB00134487
:10294000199A5A60344B1893284A249B082142F85C
:102950003310249B5A1C2492244ADB001344189AF7
:102960005A602E4B1793214A249B082142F83310BA
:10297000249B5A1C24921D4ADB001344179A5A6068
:10298000274B1693194A249B082142F83310249BA5
:102990005A1C2492154ADB001344169A5A60214BA4
:1029A0001593124A249B082142F83310249B5A1C89
:1029B00024920E4ADB001344159A5A600B4A249B5A
:1029C000002142F83310249B5A1C2492074ADB0052
:1029D000134400225A60034B01221A60009B034AF1
:1029E0001A6021E1E81A002038000020681A00204F
:1029F0004000002048000020500000205800002027
:102A00006000002068000020700000207800002096
:102A10008000002088000020900000209800002006
:102A2000A0000020A8000020824B1B68002B40F073
:102A3000F38000231493804B1393804A149BF0215E
:102A400042F83310149B5A1C14927C4ADB00134446
:102A5000139A5A607A4B1293784A149BF02142F8E9
:102A60003310149B5A1C1492744ADB001344129ABC
:102A70005A60744B1193714A149BF02142F8331041
:102A8000149B5A1C14926D4ADB001344119A5A602D
:102A90006D4B1093694A149BF02142F83310149B3C
:102AA0005A1C1492654ADB001344109A5A60674B13
:102AB0000F93624A149B082142F83310149B5A1C4E
:102AC00014925E4ADB0013440F9A5A60604B0E93D7
:102AD0005A4A149B082142F83310149B5A1C149232
:102AE000564ADB0013440E9A5A605A4B0D93534AD0
:102AF000149B082142F83310149B5A1C14924F4A1D
:102B0000DB0013440D9A5A60534B0C934B4A149BB1
:102B1000082142F83310149B5A1C1492474ADB00D8
:102B200013440C9A5A604D4B0B93444A149B082152
:102B300042F83310149B5A1C1492404ADB00134491
:102B40000B9A5A60464B0A933C4A149B082142F860
:102B50003310149B5A1C1492384ADB0013440A9A0F
:102B60005A60404B0993354A149B022142F83310B6
:102B7000149B5A1C1492314ADB001344099A5A6080
:102B8000394B08932D4A149B082142F83310149BAB
:102B90005A1C1492294ADB001344089A5A60334B9A
:102BA0000793264A149B082142F83310149B5A1CA1
:102BB0001492224ADB001344079A5A602C4B069366
:102BC0001E4A149B1E2142F83310149B5A1C149267
:102BD0001A4ADB001344069A5A60264B0593174A9B
:102BE000149B1E2142F83310149B5A1C1492134A52
:102BF000DB001344059A5A60104A149B002142F8E6
:102C00003310149B5A1C14920C4ADB00134400220C
:102C10005A60084B01221A60009B084A1A6003E0C0
:102C200001238DF8973000BF9DF89730184626B0E5
:102C3000704700BFEC1A0020A81D0020C818002013
:102C4000981E0020881F0020782000206821002086
:102C50007021002078210020802100208821002080
:102C60009021002098210020A0210020A8210020F0
:102C7000B0210020CE21002086B003900192009365
:102C80000B468DF80B3000238DF81730009B002287
:102C90001A60039B002B05D002238DF817309DF896
:102CA000173004E001238DF817309DF817301846CF
:102CB00006B0704700B583B001900091019B002BD6
:102CC00001D0022310E0009B012B0CD10220FFF762
:102CD00091FC01F06BFC0220FFF796FC00BFFFF7B0
:102CE000B1FC002300E00123184603B05DF804FBAB
:102CF00082B001900091019B002B01D0022300E0E3
:102D00000023184602B0704700B5ABB003900192A3
:102D100000930B468DF80B3000238DF8A730009BF5
:102D200000221A60039B002B05D002238DF8A730E8
:102D30009DF8A73095E29DF80B30012B03D0032BB3
:102D400000F0588187E2984B1B68002B40F01181FE
:102D500000231693954B1593954A169B182142F81C
:102D60003310169B5A1C1692914ADB001344159A95
:102D70005A60904B14938E4A169B102142F83310E0
:102D8000169B5A1C16928A4ADB001344149A5A6006
:102D9000894B1393864A169B102142F83310169BD9
:102DA0005A1C1692824ADB001344139A5A60834BD2
:102DB00012937F4A169B102142F83310169B5A1C1F
:102DC00016927B4ADB001344129A5A607C4B119393
:102DD000774A169B1E2142F83310169B5A1C1692F6
:102DE000734ADB001344119A5A60764B1093704A71
:102DF000169B182142F83310169B5A1C16926C4AE7
:102E0000DB001344109A5A606F4B0F93684A169B6D
:102E1000032142F83310169B5A1C1692644ADB00B9
:102E200013440F9A5A60694B0E93614A169BF02126
:102E300042F83310169B5A1C16925D4ADB0013446D
:102E40000E9A5A60624B0D93594A169BF02142F834
:102E50003310169B5A1C1692554ADB0013440D9AE8
:102E60005A605C4B0C93524A169B012142F8331076
:102E7000169B5A1C16924E4ADB0013440C9A5A6059
:102E8000554B0B934A4A169B012142F83310169B6F
:102E90005A1C1692464ADB0013440B9A5A604F4B59
:102EA0000A93434A169B012142F83310169B5A1C81
:102EB00016923F4ADB0013440A9A5A60484B099322
:102EC0003B4A169B012142F83310169B5A1C16925E
:102ED000374ADB001344099A5A60424B0893344A3C
:102EE000169B012142F83310169B5A1C1692304A49
:102EF000DB001344089A5A603B4B07932C4A169BFD
:102F0000012142F83310169B5A1C1692284ADB0006
:102F10001344079A5A60354B0693254A169B0121A4
:102F200042F83310169B5A1C1692214ADB001344B8
:102F3000069A5A602E4B05931D4A169B012142F8B2
:102F40003310169B5A1C1692194ADB001344059A3B
:102F50005A60174A169B002142F83310169B5A1CE0
:102F60001692134ADB00134400225A600E4B0122D2
:102F70001A6001212CA8FFF7A5F90346002B01D008
:102F800003236EE19DF8B030082B09D12DAB04214D
:102F90001846FFF797F90346002B01D0032360E1A1
:102FA000009B034A1A605AE1F01A0020F021002029
:102FB000D8190020082200201822002028220020F2
:102FC0003822002058220020702200207822002081
:102FD0006823002058240020592400205A2400206F
:102FE0005B2400205C2400205D2400205E2400205F
:102FF0005F2400209D4B1B68002B40F011810023B3
:1030000028939B4B27939B4A289B182142F8331007
:10301000289B5A1C2892974ADB001344279A5A602F
:10302000954B2693934A289B102142F83310289BF6
:103030005A1C28928F4ADB001344269A5A608F4B01
:1030400025938C4A289B102142F83310289B5A1C48
:103050002892884ADB001344259A5A60884B2493AF
:10306000844A289B102142F83310289B5A1C28922E
:10307000804ADB001344249A5A60824B23937D4A92
:10308000289B1E2142F83310289B5A1C2892794A0B
:10309000DB001344239A5A607B4B2293754A289B8A
:1030A000182142F83310289B5A1C2892714ADB00E1
:1030B0001344229A5A60754B21936E4A289B032130
:1030C00042F83310289B5A1C28926A4ADB001344AA
:1030D000219A5A606E4B2093664A289BF02142F851
:1030E0003310289B5A1C2892624ADB001344209A12
:1030F0005A60684B1F935F4A289BF02142F83310B7
:10310000289B5A1C28925B4ADB0013441F9A5A6082
:10311000614B1E93574A289B012142F83310289B8C
:103120005A1C2892534ADB0013441E9A5A605B4B88
:103130001D93504A289B012142F83310289B5A1CAA
:1031400028924C4ADB0013441D9A5A60544B1C933E
:10315000484A289B012142F83310289B5A1C289288
:10316000444ADB0013441C9A5A604E4B1B93414A5D
:10317000289B012142F83310289B5A1C28923D4A73
:10318000DB0013441B9A5A60474B1A93394A289B19
:10319000012142F83310289B5A1C2892354ADB0043
:1031A00013441A9A5A60414B1993324A289B0121C1
:1031B00042F83310289B5A1C28922E4ADB001344F5
:1031C000199A5A603A4B18932A4A289B012142F8CF
:1031D0003310289B5A1C2892264ADB001344189A65
:1031E0005A60344B1793234A289B012142F833102D
:1031F000289B5A1C28921F4ADB001344179A5A60D6
:103200001C4A289B002142F83310289B5A1C289204
:10321000184ADB00134400225A60144B01221A6042
:1032200001212CA8FFF74EF80346002B01D0032301
:1032300017E09DF8B030082B09D12DAB04211846BA
:10324000FFF740F80346002B01D0032309E0009B61
:10325000084A1A6003E001238DF8A73000BF9DF8EB
:10326000A73018462BB05DF804FB00BFF41A00200D
:10327000F0210020481900200822002018220020F8
:10328000282200203822002058220020702200200E
:103290007822002068230020582400205924002090
:1032A0005A2400205B2400205C2400205D240020A0
:1032B0005E2400205F24002000B583B00190019BB4
:1032C000002B01D002230AE00320FFF793F904F05A
:1032D000A1F80320FFF798F9FFF7AEF9002318468D
:1032E00003B05DF804FB82B001900091019B002BBC
:1032F00001D0022300E00123184602B0704782B0DB
:1033000001900091019B002B01D0022300E00123DA
:10331000184602B070470000054B1B681B68002B65
:1033200004D0034B1B680833014A136000BF704789
:10333000F81A002000B587B003900B4601928DF873
:103340000B3000230593224B1B68002B37D19DF8CF
:103350000B10204B019A0398FFF72AFA0346002B23
:1033600003D00123059300232DE01A4B1B685B68F3
:10337000174A1360174B1B681B68174A13601EE03F
:10338000134B1B68144A126811461846FEF7F0FFEB
:10339000FFF7C2FF0F4B1B681B68002B05D10123F1
:1033A00005930B4B00221A6009E00A4B1B685B680F
:1033B000074A1360074B1B681B68074A1360059B8D
:1033C000002BDDD00023184607B05DF804FB00BFDA
:1033D0000C1B0020F81A0020101B002000B589B03B
:1033E000059003930B468DF8133013468DF8123079
:1033F000012307939DF812100A9B01939DF8133047
:103400000093154B039A0598FFF77EFC0346002BAB
:1034100019D000231BE0104B1B685A680E4B1B6829
:103420001B6819461046FEF74DFF0346002B01D0DE
:1034300001230CE0FFF770FF074B1B681B68002B94
:1034400001D100230793079B002BE4D100231846EA
:1034500009B05DF804FB00BFF81A002000B589B080
:10346000059003930B468DF8133013468DF81230F8
:1034700001230793002306939DF81210069B0193E6
:103480009DF813300093154B039A0598FFF7F4FB52
:103490000346002B19D000231BE0104B1B685A6811
:1034A0000E4B1B681B6819461046FEF70BFF0346C0
:1034B000002B01D001230CE0FFF72EFF074B1B6808
:1034C0001B68002B01D100230793079B002BE4D13D
:1034D0000023184609B05DF804FB00BFF81A00206D
:1034E00000B585B003460A468DF8073013468DF8BF
:1034F0000630FCF75DFF0346002B01D001232BE0D3
:103500009DF80730002B1CD000238DF80F300DF1F3
:103510000F0301211846FEF7D5FE0346002B01D00C
:10352000012319E09DF807308DF80F300DF10F03DE
:1035300001211846FEF7C6FE0346002B01D00123E9
:103540000AE09DF806301846FEF770FF0346002B90
:1035500001D0012300E00023184605B05DF804FB0C
:1035600084B003460A468DF8073013468DF80630BE
:103570009DF90730062B00F2FE8001A252F823F0DD
:103580009D350008D335000843360008F33600089F
:103590008B3600080D3700086F3700089DF806309D
:1035A0000D2B11DC0B2B07DA092B02DC002B03DAC5
:1035B0000AE00A2B04D007E001238DF80F3007E062
:1035C00001238DF80F3003E0FF238DF80F3000BF8B
:1035D000D5E09DF806300D2B2ED801A252F823F02D
:1035E0001936000829360008293600083136000847
:1035F0002936000831360008313600082136000827
:1036000029360008313600083936000831360008FE
:10361000293600081936000805238DF80F300FE011
:1036200006238DF80F300BE004238DF80F3007E0F0
:1036300002238DF80F3003E0FF238DF80F3000BF19
:103640009DE09DF80630033B082B19D801A252F8E3
:1036500023F000BF7936000881360008793600086B
:10366000793600088136000881360008793600086E
:10367000813600087936000804238DF80F3003E006
:10368000FF238DF80F3000BF79E09DF80630013B35
:103690000C2B29D801A252F823F000BFD136000824
:1036A000D1360008D9360008D1360008D1360008D6
:1036B000D1360008E9360008D1360008E1360008A6
:1036C000E9360008D1360008D1360008D1360008A6
:1036D00005238DF80F300BE003238DF80F3007E042
:1036E00007238DF80F3003E0FF238DF80F3000BF64
:1036F00045E09DF80630032B03D105238DF80F30EC
:1037000003E0FF238DF80F3000BF38E09DF806304E
:103710000D2B27D801A252F823F000BF553700081F
:103720005D3700085D3700085D3700085D37000829
:103730005D3700085D3700085D3700085537000821
:103740006537000865370008553700085D37000801
:103750005D37000807238DF80F3007E006238DF84A
:103760000F3003E0FF238DF80F3000BF07E0072381
:103770008DF80F3003E0FF238DF80F3000BF9DF967
:103780000F30184604B0704700B583B01D4B93F955
:103790000030002B33D10DF1070301211846FEF74D
:1037A000E7FD9DF80720174B5A70164B5B780A2BE4
:1037B0000DD1154B01221A6001210820FFF790FE60
:1037C0000346002B1AD0114B00221A6017E00D4B54
:1037D00093F900300B4A527811461846FFF7C0FEA5
:1037E00003461A46074B1A70064B93F90030B3F1A3
:1037F000FF3F04D1054B00221A6000E000BF03B078
:103800005DF804FB001B0020FC1A002030000020A3
:1038100000B587B0FFF7B8FFBE4B93F90030012B1E
:103820001AD10421BC48FEF7A3FDBA4B93F900302E
:10383000B84A527811461846FFF792FE03461A46D8
:10384000B44B1A70B34B93F90030B3F1FF3F03D17F
:10385000B24B00221A606CE2AE4B93F90030022B9F
:103860001AD10421AE48FEF783FDAA4B93F900302C
:10387000A84A527811461846FFF772FE03461A46C8
:10388000A44B1A70A34B93F90030B3F1FF3F03D15F
:10389000A24B00221A604CE29E4B93F90030042B9D
:1038A0003AD19C4B9B689B4A51789A4A5268184679
:1038B000FFF740FD03468DF817309DF81730012BB8
:1038C00003D1964B00221A6033E29DF81730002B8B
:1038D0000BD001210120FFF703FE0346002B00F06F
:1038E0000D828E4B00221A6023E28A4B93F900303E
:1038F000884A527811461846FFF732FE03461A46A8
:10390000844B1A70834B93F90030B3F1FF3F03D11E
:10391000824B00221A600CE27E4B93F90030032B9D
:103920003AD17C4B98687B4B5A787A4B5B68012183
:10393000FFF794FD03468DF816309DF81630012BE5
:1039400003D1764B00221A60F3E19DF81630002B6C
:103950000BD001210220FFF7C3FD0346002B00F02E
:10396000CF816E4B00221A60E3E16A4B93F900307D
:10397000684A527811461846FFF7F2FD03461A4688
:10398000644B1A70634B93F90030B3F1FF3F03D1DE
:10399000624B00221A60CCE15E4B93F90030052B9C
:1039A00040F04B815B4B5B780D2B00F2148101A240
:1039B00052F823F0ED3900083D3A0008913A00082A
:1039C000813B0008BB3A0008E53A0008253B0008A7
:1039D000DF3B0008133A0008D73B0008D73B00083C
:1039E000533B0008AF3B0008673A0008FDF79CF91D
:1039F0000346002B03D0494B00221A6099E1FEF7E1
:103A000052FE0346002B00F0EC80444B00221A606B
:103A10008FE1404B9B681846FEF716FE0346002BCD
:103A200000F0E18001210320FFF75AFD0346002B3F
:103A300000F06881394B00221A607AE1354B9B68AF
:103A40001846FEF765FE0346002B00F0CE800121EC
:103A50000420FFF745FD0346002B00F055812F4B56
:103A600000221A6065E12B4B9B681846FEF76BFE3F
:103A70000346002B00F0BB8001210420FFF730FD3E
:103A80000346002B00F04281244B00221A6050E1D3
:103A9000204B9B681846FEF76BFE0346002B00F098
:103AA000A88001210520FFF71BFD0346002B00F035
:103AB0002F811A4B00221A603BE1164B9B68184677
:103AC000FFF7FAFB0346002B00F095800121082048
:103AD000FFF706FD0346002B00F01C810F4B002270
:103AE0001A6026E10B4B9B680A4A52681146184639
:103AF000FFF7F9FB0346002B7FD001210920FFF7D8
:103B0000EFFC0346002B00F00781044B00221A60F3
:103B10000FE100BF001B0020081B00203000002028
:103B2000041B0020844B9B68834A52681146184648
:103B3000FFF7E5FB0346002B61D001210A20FFF7C8
:103B4000CFFC0346002B00F0E9807C4B00221A607A
:103B5000EFE0794B9B68784A526811461846FFF7A8
:103B6000C7F80346002B4CD001210720FFF7B8FC13
:103B70000346002B00F0D480704B00221A60D8E07E
:103B80006D4B9B686C4A526811461846FFF792F8D5
:103B90000346002B37D001210620FFF7A1FC034686
:103BA000002B00F0BF80654B00221A60C1E0624B21
:103BB0009B681846FEF7ECFD0346002B25D001213B
:103BC0000B20FFF78DFC0346002B00F0AD805B4B14
:103BD00000221A60ADE0594B00221A60A9E000BF34
:103BE00014E000BF12E000BF10E000BF0EE000BF15
:103BF0000CE000BF0AE000BF08E000BF06E000BF25
:103C000004E000BF02E000BF00E000BF4A4B93F9B0
:103C10000030494A527811461846FFF7A1FC034686
:103C20001A46454B1A70444B93F90030B3F1FF3FED
:103C300003D1424B00221A607BE03F4B93F90030E6
:103C4000062B3ED1002304933B4B98683A4B5A789D
:103C5000394B5968049B00930B460221FFF7BEFBCA
:103C600003468DF80F309DF80F30012B03D1334BF5
:103C700000221A605DE09DF80F30002B0AD0012170
:103C80000220FFF72DFC0346002B4FD02B4B0022C8
:103C90001A604EE0284B93F90030274A52781146BB
:103CA0001846FFF75DFC03461A46234B1A70224B59
:103CB00093F90030B3F1FF3F03D1204B00221A608B
:103CC00037E01D4B93F90030072B31D11A4B5B784D
:103CD000092B2DD001238DF80E309DF80E3019469A
:103CE0000020FFF7FDFB0346002B03D0134B0022FF
:103CF0001A601EE0104B00221A7019E000BF18E095
:103D000000BF16E000BF14E000BF12E000BF10E0EB
:103D100000BF0EE000BF0CE000BF0AE000BF08E0FB
:103D200000BF06E000BF04E000BF02E000BF00E00B
:103D300000BF07B05DF804FB001B0020300000202E
:103D400000B583B000238DF80730FFF761FD0C4B01
:103D50001B68002B0BD00B4B1B68002B03D0FF23E1
:103D60008DF8073006E000238DF8073002E00123CC
:103D70008DF807309DF90730184603B05DF804FB55
:103D800030000020FC1A0020012318467047000074
:103D900082B001900B46ADF80230019B024A1A60D6
:103DA0000123184602B07047141B002082B0019016
:103DB000014B184602B07047191B002000B583B0B4
:103DC00001900B46ADF80230BDF802301A460121D1
:103DD000019800F049F80346DBB2184603B05DF8DD
:103DE00004FB00B583B0019000910099019800F0A8
:103DF00021F803460122934201D0012315E0FEF78A
:103E000031FA0346002B01D001230EE0FCF74AFAF9
:103E10000346002B01D0012307E0FDF705F8034618
:103E2000002B01D0012300E00023184603B05DF809
:103E300004FB000000B583B0019000910099019847
:103E4000FDF712F90346074A1360064B1B68B3F1EE
:103E5000FF3F01D1002300E00123184603B05DF8C5
:103E600004FB00BF541B002000B589B001900B4635
:103E70008DF803301346ADF800309DF803308DF80F
:103E80000F30BDF800300793079B05330693079B5F
:103E90000293019B0593059B002B01D1002316E0A3
:103EA0009DF80F20059B1A70059B0133029A1A603A
:103EB000094B1B68069A05991846FDF7FFFA04900E
:103EC000049BB3F1FF3F01D1002300E0012318461A
:103ED00009B05DF804FB00BF541B002000B587B09B
:103EE0000190009100230493184B1B680DF10F0102
:103EF00001221846FDF712FB0590059BB3F1FF3F29
:103F000001D100231DE0114B1B6804A904221846AF
:103F1000FDF704FB0590059BB3F1FF3F01D10023A2
:103F20000FE00A4B1B68049A09491846FDF7F6FA98
:103F30000590019B064A1A60049B9AB2009B1A8066
:103F40000123184607B05DF804FB00BF541B002096
:103F5000581B002030B58FB08DED040B03900291FB
:103F60000192039BD3E90023DDE9040104F0A4FCE2
:103F70000346002B20D000230A93039BD3E90023A0
:103F8000DDE9040104F064F802460B4614461D46C0
:103F9000039B0833D3E90001039BD3E9002304F01A
:103FA00057F802460B462046294604F033FB0246EA
:103FB0000B46CDE90C2387E0019BDB00039A1344F9
:103FC000D3E90023DDE9040104F06CFC0346002B77
:103FD0004BD0019B5B080B9300230A93019B099331
:103FE00016E00B9BDB00039A1344D3E90023DDE9C1
:103FF000040104F057FC0346002B02D00B9B0993ED
:1040000001E00B9B0A93099A0A9B13445B080B93EC
:10401000099A0A9BD31A012BE3D80A9BDB00039A67
:104020001344D3E90023DDE9040104F011F802464A
:104030000B4614461D460A9B0133DB00039A1344CA
:10404000D3E900010A9BDB00039A1344D3E9002360
:1040500003F0FEFF02460B462046294604F0DAFA3A
:1040600002460B46CDE90C232EE0019B013B0A934F
:10407000019B03F10053013BDB00039A1344D3E996
:104080000023DDE9040103F0E3FF02460B4614467A
:104090001D46019BDB00039A1344D3E90001019BF9
:1040A00003F10053013BDB00039A1344D3E90023DF
:1040B00003F0CEFF02460B462046294604F0AAFA3A
:1040C00002460B46CDE90C230A9BDB00029A1344FF
:1040D000D3E90023CDE906230A9B0133DB00029AD2
:1040E0001344D3E90001DDE9062303F0B1FF0246E2
:1040F0000B4610461946DDE90C2304F061F902462F
:104100000B4610461946DDE9062303F0A3FF0246DD
:104110000B4643EC172BB0EE470AF0EE670A0FB0E0
:1041200030BD86B00390029101920023059307E011
:10413000059B039A134400221A70059B01330593D3
:10414000059B092BF4DD02994FF000024FF00003AC
:10415000C1E90023019B00221A7000BF06B070471E
:1041600010B58AB006918DED040B8DED021B019206
:1041700000930346ADF81E300D9B1B68B3F1FF3F63
:1041800004D00D9B1B685A1C0D9B1A600D9B1B795C
:10419000002B22D10D9B01221A710D9B01225A7115
:1041A0000023099307E0099B019A134400221A7027
:1041B000099B01330993099B092BF4DD0C9B002219
:1041C0001A70DDE90223DDE9040103F041FF024634
:1041D0000B460099C1E90023E2E10D9B5B79012BBD
:1041E00072D1BDF91E30032B62D1009BD3E90001CF
:1041F000AB4BD3E9102304F073FB0346002B57D0DD
:104200000D9B02225A710C9B01221A700D9B0122F8
:104210009A710D9B00221A600023099321E0099BEB
:10422000DB00069A1344D3E90001DDE9022303F021
:104230000FFF02460B4610461946994BD3E910234F
:10424000012404F04DFB0346002B01D100231C4642
:10425000E1B2099B019A13440A461A70099B013383
:104260000993099B092BDADD0D9B0122DA710023EA
:10427000099300238DF823300FE0099B019A134422
:104280001B78002B06D00D9B0022DA7101238DF8DC
:10429000233002E0099B013309939DF82330002B62
:1042A00002D1099B092BE8DD0C9B01221A7077E1F2
:1042B000DDE90223DDE9040103F0CAFE02460B46F4
:1042C0000099C1E900236BE1BDF91E30032B22D018
:1042D0000D9B00229A710D9B01225A7100230993B4
:1042E00007E0099B019A134400221A70099B0133CD
:1042F0000993099B092BF4DD0C9B00221A70DDE960
:104300000223DDE9040103F0A3FE02460B460099F7
:10431000C1E9002344E10D9B9B79032B00F0C2808F
:10432000032B00F31181012B02D0022B4BD00BE1A8
:104330000D9BDB79002B11D00D9B02229A71DDE9D8
:104340000223DDE9040103F083FE02460B460099D7
:10435000C1E900230C9B00221A701EE10D9BDB7942
:10436000002B40F01A810D9B1B681A4613469B00D8
:1043700013445B001C464A4B93ED1C7BB0EE470A8E
:10438000F0EE670A03F0E0FD53EC102B10461946DF
:1043900004F0B0FA03469C42C0F0FF800D9B04225B
:1043A0009A710D9B00221A600023099307E0099B74
:1043B000019A134400221A70099B01330993099B47
:1043C000092BF4DDE9E0009BD3E90001344BD3E98C
:1043D000102304F085FA0346002B51D00D9B0122D7
:1043E0009A710D9B00221A600023099321E0099B1A
:1043F000DB00069A1344D3E90001DDE9022303F050
:1044000027FE02460B4610461946254BD3E91023DA
:10441000012404F065FA0346002B01D100231C4659
:10442000E1B2099B019A13440A461A70099B0133B1
:104430000993099B092BDADD0D9B0122DA71002318
:10444000099300238DF823300FE0099B019A134450
:104450001B78002B06D00D9B0022DA7101238DF80A
:10446000233002E0099B013309939DF82330002B90
:1044700002D1099B092BE8DD0C9B01221A708FE009
:10448000DDE90223DDE9040103F0E2FD02460B460B
:104490000099C1E900230C9B00221A7080E000BF44
:1044A000380000200D9B01229A710D9B00221A609A
:1044B0000023099321E0099BDB00069A1344D3E90A
:1044C0000001DDE9022303F0C3FD02460B4610465E
:1044D0001946354BD3E91023012404F001FA0346B1
:1044E000002B01D100231C46E1B2099B019A134421
:1044F0000A461A70099B01330993099B092BDADDDF
:104500000D9B0122DA710023099300238DF82330DB
:104510000FE0099B019A13441B78002B06D00D9BDA
:104520000022DA7101238DF8233002E0099B013368
:1045300009939DF82330002B02D1099B092BE8DD5C
:104540000C9B01221A702BE00D9B1B681A46134628
:104550009B0013445B001C46134B93ED1A7BB0EE9B
:10456000470AF0EE670A03F0EFFC53EC102B1046FD
:10457000194604F0BFF903469C4210D30D9B032259
:104580009A71DDE90223DDE9040103F061FD0246D1
:104590000B460099C1E9002301E000BF00E000BF25
:1045A00000BF0AB010BD00BF3800002030B597B082
:1045B0009C494FF000024FF00003C1E922239949C2
:1045C0004FF000024FF00003C1E9282395494FF056
:1045D00000024FF00003C1E92E2392494FF0000280
:1045E0004FF00003C1E934238E494FF000024FF031
:1045F0000003C1E93A238B494FF000024FF000035A
:10460000C1E9402387494FF000024FF00003C1E9A0
:10461000462384494FF000024FF00003C1E94C23C8
:1046200080494FF000024FF00003C1E952237D4959
:104630004FF000024FF00003C1E9582379494FF0D1
:1046400000024FF00003C1E9242376494FF0000235
:104650004FF00003C1E92A2372494FF000024FF0E6
:104660000003C1E930236F494FF000024FF000030F
:10467000C1E936236B494FF000024FF00003C1E956
:104680003C2368494FF000024FF00003C1E9422388
:1046900064494FF000024FF00003C1E9482361492B
:1046A0004FF000024FF00003C1E94E235D494FF087
:1046B00000024FF00003C1E954235A494FF00002B1
:1046C0004FF00003C1E95A2356494FF000024FF062
:1046D0000003C1E9262353494FF000024FF00003C5
:1046E000C1E92C234F494FF000024FF00003C1E90C
:1046F00032234C494FF000024FF00003C1E9382348
:1047000048494FF000024FF00003C1E93E234549FC
:104710004FF000024FF00003C1E9442341494FF03C
:1047200000024FF00003C1E94A233E494FF0000266
:104730004FF00003C1E950233A494FF000024FF017
:104740000003C1E9562337494FF000024FF0000340
:10475000C1E95C23344BD3E900233249C1E95E232C
:10476000314BD3E902232F49C1E964232E4BD3E90E
:1047700004232C49C1E96A232B4BD3E90623294999
:10478000C1E97023284BD3E908232649C1E97623E0
:10479000254BD3E90A232349C1E97C23224BD3E9E2
:1047A0000C232049C1E982231F4BD3E90E231D4965
:1047B000C1E988231C4BD3E910231A49C1E98E2390
:1047C000194BD3E912231749C1E99423164BD3E9B6
:1047D00014231449C1E96023134BD3E9162311496B
:1047E000C1E96623104BD3E918230E49C1E96C23B4
:1047F0000D4BD3E91A230B49C1E972230A4BD3E9C4
:104800001C230849C1E97823074BD3E91E23054936
:10481000C1E97E23044BD3E920230249C1E9842363
:10482000014B03E0F021002060240020D3E9222383
:104830007D49C1E98A237D4BD3E924237A49C1E923
:1048400090237A4BD3E926237749C1E99623774B06
:10485000D3E928237449C1E96223744BD3E92A239D
:104860007149C1E96823714BD3E92C236E49C1E931
:104870006E236E4BD3E92E236B49C1E974236B4B36
:10488000D3E930236849C1E97A23684BD3E932235D
:104890006549C1E98023654BD3E934236249C1E905
:1048A0008623624BD3E936235F49C1E98C235F4BF2
:1048B000D3E938235C49C1E992235C4BD3E93A231D
:1048C0005949C1E998230023139312E0139A134620
:1048D0005B001344564A1E33DB001344D3E9002324
:1048E00054481399C9000144C1E90023139B0133C3
:1048F0001393139B092BE9DD4D4BD3E93C234D4921
:10490000C1E95C23002313932FE0139B5A1C134629
:104910005B001344464A1E33DB001344D3E90023F3
:10492000CDE90223434BD3E95C2301210C46DDE9A9
:10493000020103F0B7FF0346002B01D100231C4600
:10494000E3B283F00103DBB2002B0BD09DED020B31
:1049500002F058FE0346002B04D13649DDE902235C
:10496000C1E95C23139B01331393139B082BCCDD0C
:104970000023139314E0139A13465B00134401338E
:104980002B4A1E33DB001344D3E900232948139933
:104990000A31C9000144C1E90023139B0133139379
:1049A000139B092BE7DD224BD3E93E232149C1E9C3
:1049B0005E230023139330E0139B5A1C13465B00C5
:1049C000134401331A4A1E33DB001344D3E9002396
:1049D000CDE90223174BD3E95E2301210C46DDE923
:1049E000020103F05FFF0346002B01D100231C46A8
:1049F000E3B283F00103DBB2002B0BD09DED020B81
:104A000002F000FE0346002B04D10A49DDE902232F
:104A1000C1E95E23139B01331393139B082BCBDD5A
:104A2000002313931DE000BFF0210020602400202C
:104A3000A81D0020D81B0020139A13465B001344C6
:104A40000233174A1E33DB001344D3E90023154811
:104A500013991431C9000144C1E90023139B0133A8
:104A60001393139B092BE7DD0D4BD3E940230D492D
:104A7000C1E96E230A4BD3E93C230A49C1E960230B
:104A8000074BD3E93E230749C1E96223044BD3E92D
:104A900040230449C1E9702300231393B0E000BF11
:104AA000A81D0020D81B0020139B5A1C13465B0036
:104AB00013441193119B0233A14A1E33DB001344AC
:104AC000D3E90023CDE90E239DED0E0B02F09AFDF4
:104AD0000346002B0CBF01230023DBB28DF83730D7
:104AE000984BD3E96E2301210C46DDE90E0103F05A
:104AF000D9FE0346002B01D100231C46E3B283F00C
:104B00000103DBB2002B08D09DF83730002B04D016
:104B10008C49DDE90E23C1E96E23894A119B1E33BE
:104B2000DB001344D3E90023CDE90223854BD3E90D
:104B3000602301210C46DDE9020103F0D1FE0346AA
:104B4000002B01D100231C46E3B283F00103DBB24A
:104B5000002B0BD09DED020B02F054FD0346002B01
:104B600004D17849DDE90223C1E96023119B0133B7
:104B7000734A1E33DB001344D3E90023CDE902233B
:104B8000704BD3E9622301210C46DDE9020103F0F9
:104B9000A7FE0346002B01D100231C46E3B283F09D
:104BA0000103DBB2002B0BD09DED020B02F02AFDBE
:104BB0000346002B04D16349DDE90223C1E96223E6
:104BC000604BD3E9702301210C46DDE90E0103F0AF
:104BD00087FE0346002B01D100231C46E3B283F07D
:104BE0000103DBB2002B08D09DF83730002B04D036
:104BF0005449DDE90E23C1E97023139B013313935C
:104C0000139B082B7FF750AF4E4BD3E95C014D4B04
:104C1000D3E95E2303F064FE0346002B0BD1494B1E
:104C200093ED5E7BB0EE470AF0EE670A02F0EAFC15
:104C30000346002B05D0434BD3E95C234149C1E92E
:104C40005E23404BD3E95E013E4BD3E96E2303F074
:104C500047FE0346002B0BD13A4B93ED6E7BB0EE33
:104C6000470AF0EE670A02F0CDFC0346002B05D0A0
:104C7000344BD3E95E233349C1E96E23314BD3E989
:104C80006001304BD3E9622303F00CFE0346002B96
:104C90000BD12C4B93ED627BB0EE470AF0EE670A26
:104CA00002F0B0FC0346002B05D0264BD3E960236D
:104CB0002449C1E96223234BD3E96201214BD3E9A3
:104CC000702303F0EFFD0346002B0BD11D4B93ED3A
:104CD000707BB0EE470AF0EE670A02F093FC0346E1
:104CE000002B05D0174BD3E962231649C1E9702385
:104CF000154B93F8F430013B072B00F2898001A299
:104D000052F823F0254D0008514D00087B4D000856
:104D1000A54D0008C14D0008CF4D0008E94D000821
:104D2000F74D000807494FF000024FF00003C1E9BA
:104D3000422304494FF00002044BC1E94A23A7E093
:104D4000A81D0020D81B0020602400200000F03F98
:104D5000AB494FF000024FF00003C1E93C23A849E2
:104D60004FF00002A74BC1E94623A5494FF00002CE
:104D70004FF00003C1E94A238AE0A1494FF0000245
:104D80004FF00003C1E93E239D494FF000029D4BC7
:104D9000C1E948239A494FF000024FF00003C1E9EE
:104DA0004C2375E096494FF000024FF00003C1E933
:104DB000442393494FF00002924BC1E94C2367E032
:104DC0008F494FF000028F4BC1E93C2360E08C49D2
:104DD0004FF000028B4BC1E9422389494FF000029A
:104DE000884BC1E9402353E085494FF00002854BD1
:104DF000C1E93E234CE082494FF00002814BC1E9FA
:104E000044237F494FF000027E4BC1E940233FE03D
:104E10007B494FF000024FF00003C1E9402378497D
:104E20004FF000024FF00003C1E9422374494FF0F4
:104E300000024FF00003C1E9442371494FF0000222
:104E40004FF00003C1E93C236D494FF000024FF0E1
:104E50000003C1E93E236A494FF000024FF000030E
:104E6000C1E9462366494FF000024FF00003C1E953
:104E7000482363494FF000024FF00003C1E94A2381
:104E80005F494FF000024FF00003C1E94C2300BF1F
:104E90005D4B93F8F530002B0CD05B4BD3F8F03022
:104EA000B3F1FF3F06D0584BD3F8F0300133564AE8
:104EB000C2F8F030544B012283F8F520524B93F89E
:104EC000F430013B072B00F2418101A252F823F09C
:104ED000F14E0008214F0008554F0008894F000887
:104EE000B94F00081950000891500008D750000829
:104EF000464BB3F8F033ADF84A30BDF94A30022BD7
:104F000004D0414B022283F8F4204DE1BDF94A3030
:104F1000022B40F049813C4B012283F8F42043E10D
:104F20003A4BD3E9F0453A4BD3E91801374BD3E973
:104F3000FA2303F045FA02460B462046294603F0C1
:104F4000B1FC0346002B00D13BE12F4B092283F833
:104F5000F42036E12D4BD3E9F2452D4BD3E918016E
:104F60002A4BD3E9FA2303F02BFA02460B462046DC
:104F7000294603F097FC0346002B00D121E1224B88
:104F8000092283F8F4201CE1204BB3F8F033ADF88C
:104F90004A30BDF94A30012B04D01B4B032283F861
:104FA000F42003E1BDF94A30012B40F0FF80164B9D
:104FB000042283F8F420F9E0134BD3F8F040144BAB
:104FC000D3E912014FF00002124B03F0F9F9024647
:104FD0000B4643EC172BB0EE470AF0EE670A02F0DF
:104FE000B3FF53EC102B1046194603F083FC034625
:104FF0009C42C0F0DD80044B012283F8F420D7E00E
:10500000D81B00200000F03F60240020A81D0020D5
:105010003800002000005940924BD3E91601924B12
:10502000D3E9FA2303F0CCF902460B468F49C1E9D4
:105030005C238D4BD3E9F0018C4BD3E95C2303F067
:1050400045FC0346002B08D0894B052283F8F42049
:10505000874B0022C3F8F020ACE0834BD3E9F0018A
:10506000824BD3E95C2303F01DFC0346002B04D0E4
:105070007F4B062283F8F4209CE07B4BB3F9F0339E
:10508000012B00F097807A4B092283F8F42091E0FD
:10509000774BD3F8F040734BD3E912014FF0000285
:1050A000744B03F08DF902460B4643EC172BB0EE20
:1050B000470AF0EE670A02F047FF53EC102B104648
:1050C000194603F017FC03469C4275D3684B042233
:1050D00083F8F42070E0634BD3E91601624BD3E907
:1050E000FA2303F06DF902460B466049C1E95C23DF
:1050F0005D4BD3E9F2015D4BD3E95C2303F0E6FBA2
:105100000346002B08D05A4B072283F8F420584B53
:105110000022C3F8F02051E0534BD3E9F201534B86
:10512000D3E95C2303F0BEFB0346002B04D0504BB5
:10513000082283F8F42041E04B4BB3F9F033012B04
:105140003CD04B4B092283F8F42037E0464BB3F8B0
:10515000F033ADF84A30444BD3E9FA01414BD3E97F
:10516000142303F0BDFB0346002B08D0BDF94A30E1
:10517000022B04D13E4B062283F8F42020E03A4B68
:10518000D3E9FA01374BD3E9142303F0A9FB034613
:10519000002B00D114E0BDF94A30012B10D1344B63
:1051A000082283F8F4200BE000BF0AE000BF08E00B
:1051B00000BF06E000BF04E000BF02E000BF00E067
:1051C00000BF294BB3F9F003284B93ED6E7B274BBF
:1051D00093ED706B284B0193284B0093284B294A81
:1051E000B0EE461AF0EE661AB0EE470AF0EE670A25
:1051F0001E49FEF7B5FF1C4BB3F9F0031B4B93EDB3
:105200006E7B1A4B93ED706B1F4B01931F4B0093FA
:105210001F4B204AB0EE461AF0EE661AB0EE470A6F
:10522000F0EE670A1C49FEF79BFF0F4BB3F9F00342
:105230000E4B93ED6E7B0D4B93ED706B174B019303
:10524000174B0093174B184AB0EE461AF0EE661A49
:10525000B0EE470AF0EE670A1449FEF781FF00231B
:10526000139359E038000020A81D0020D81B00200F
:10527000602400200000594068250020A01D002067
:10528000101D0020281D002060250020A11D0020E9
:10529000181D0020321D0020281C00205825002049
:1052A000A21D0020201D00203C1D0020781C002095
:1052B000139A13465B0013443E49139A0A4402F5BD
:1052C000A87211783C4A13440A4683F84820139B7D
:1052D00003F10A01139A13465B0013440133354A64
:1052E0000A4492F85011344A13440A4683F848207D
:1052F000139B03F11401139A13465B00134402330A
:105300002C4A0A4492F850112B4A13440A4683F857
:105310004820139B01331393139B092BC8DD274BA4
:10532000D3E940232349C1E96A23244BD3E93C2331
:105330002049C1E96023214BD3E93E231D49C1E93E
:1053400062231E4BD3E978231A49C1E95C231B4B26
:10535000D3E97A231749C1E95E23184BD3E97C23AB
:105360001449C1E96C23154BD3E900231149C1E964
:105370006E23124BD3E902230E49C1E970230F4B70
:10538000D3E90423CDE914230C4BD3E93C23094989
:10539000C1E96423094BD3E93E230649C1E96623E9
:1053A000064BD3E940230349C1E968230023139343
:1053B000F9E100BFD81B0020F0210020A81D00202B
:1053C000139B5A1C13465B0013441193119B023329
:1053D000A94A1E33DB001344D3E90023CDE90E2391
:1053E0009DED0E0B02F00EF90346002B0CBF0123BE
:1053F0000023DBB28DF83730A04BD3E96A230121BB
:105400000C46DDE90E0103F06BFA0346002B01D1D7
:1054100000231C46E3B283F00103DBB2002B08D06B
:105420009DF83730002B04D09449DDE90E23C1E903
:105430006A23914A119B1E33DB001344D3E90023F6
:10544000CDE90A239DED0A0B02F0DCF80346002BA0
:105450000CBF01230023DBB28DF82730874BD3E943
:10546000602301210C46DDE90A0103F039FA034605
:10547000002B01D100231C46E3B283F00103DBB211
:10548000002B08D09DF82730002B04D07B49DDE9A4
:105490000A23C1E96023119B0133774A1E33DB00E5
:1054A0001344D3E90023CDE906239DED060B02F05A
:1054B000A9F80346002B0CBF01230023DBB28DF8B3
:1054C00017306E4BD3E9622301210C46DDE906015A
:1054D00003F006FA0346002B01D100231C46E3B279
:1054E00083F00103DBB2002B08D09DF81730002BAE
:1054F00004D06249DDE90623C1E962235E4A119BBB
:105500003C33DB001344D3E90023CDE902235B4B9A
:10551000D3E95C2301210C46DDE9020103F0C2F965
:105520000346002B01D100231C46E3B283F00103A4
:10553000DBB2002B0BD09DED020B02F063F80346AB
:10554000002B04D14D49DDE90223C1E95C23119B05
:105550000133494A3C33DB001344D3E90023CDE94E
:105560000223464BD3E95E2301210C46DDE902010B
:1055700003F098F90346002B01D100231C46E3B247
:1055800083F00103DBB2002B0BD09DED020B02F088
:1055900039F80346002B04D13849DDE90223C1E97B
:1055A0005E23119B0233344A3C33DB001344D3E9BE
:1055B0000023CDE90223314BD3E96C2301210C46B2
:1055C000DDE9020103F06EF90346002B01D100234F
:1055D0001C46E3B283F00103DBB2002B0BD09DED40
:1055E000020B02F00FF80346002B04D12349DDE93A
:1055F0000223C1E96C23204A119BDB001344D3E949
:105600000023CDE902231D4BD3E96E2301210C4673
:10561000DDE9020103F046F90346002B01D1002326
:105620001C46E3B283F00103DBB2002B0BD09DEDEF
:10563000020B01F0E7FF0346002B04D10F49DDE91F
:105640000223C1E96E23119B01330B4ADB00134493
:10565000D3E90023CDE90223084BD3E970230121CC
:105660000C46DDE9020103F01DF90346002B07D1CA
:1056700000231C4604E000BFA81D0020D81B00200A
:10568000E3B283F00103DBB2002B0BD09DED020BE4
:1056900001F0B8FF0346002B04D1A949DDE902233C
:1056A000C1E97023119B0233A64ADB001344D3E9FE
:1056B0000023CDE9022301231C46DDE90223DDE9B5
:1056C000140103F00DF90346002B01D100231C4601
:1056D000E3B283F00103DBB2002B0AD09DED020B95
:1056E00001F090FF0346002B03D1DDE90223CDE951
:1056F0001423934BD3E9642301210C46DDE90A010D
:1057000003F0D0F80346002B01D100231C46E3B27E
:1057100083F00103DBB2002B08D09DF82730002B6B
:1057200004D08749DDE90A23C1E96423844BD3E926
:10573000662301210C46DDE9060103F0B3F80346B8
:10574000002B01D100231C46E3B283F00103DBB23E
:10575000002B08D09DF81730002B04D07849DDE9E4
:105760000623C1E96623764BD3E9682301210C4661
:10577000DDE90E0103F096F80346002B01D100236A
:105780001C46E3B283F00103DBB2002B08D09DF886
:105790003730002B04D06A49DDE90E23C1E96823C4
:1057A000139B01331393139B082B7FF709AE644BB4
:1057B000D3E96001624BD3E9622303F073F8034637
:1057C000002B0BD15E4B93ED627BB0EE470AF0EEFF
:1057D000670A01F017FF0346002B05D0584BD3E9A9
:1057E00060235749C1E96223554BD3E96201544B09
:1057F000D3E96A2303F056F80346002B0BD1504B34
:1058000093ED6A7BB0EE470AF0EE670A01F0FAFE0C
:105810000346002B05D04A4BD3E962234849C1E92E
:105820006A23474BD3E96A01474BD3E90E2301248E
:1058300003F042F80346002B01D100231C46E3B2DB
:105840001A46424B83F86E223D4BD3E95C013C4B38
:10585000D3E95E2303F044F80346002B0BD1384B09
:1058600093ED5E7BB0EE470AF0EE670A01F0CAFEE8
:105870000346002B05D0324BD3E95C233049C1E904
:105880005E232F4BD3E95E012D4BD3E96C2303F04C
:1058900027F80346002B0BD1294B93ED6C7BB0EE20
:1058A000470AF0EE670A01F0ADFE0346002B05D073
:1058B000234BD3E95E232249C1E96C23204BD3E972
:1058C0006C01214BD3E90223012402F0FFFF0346C0
:1058D000002B01D100231C46E3B21A461B4B83F870
:1058E0006822174BD3E96C01174BD3E9002301243D
:1058F00002F0ECFF0346002B01D100231C46E3B26B
:105900001A46124B83F869220D4BD3E96E010C4BFA
:10591000D3E9702302F0E4FF0346002B0BD1084BC0
:1059200093ED707BB0EE470AF0EE670A01F06AFE75
:105930000346002B0FD0024BD3E96E2308E000BFD3
:10594000D81B0020A81D002038000020F0210020D6
:105950003C49C1E970233B4BD3E97023DDE91401D5
:1059600002F0A0FF0346002B06D19DED140B01F0C1
:1059700049FE0346002B04D0324BD3E97023CDE916
:105980001423314BD3E9062301210C46DDE9140130
:1059900002F09CFF0346002B01D100231C46E3B21A
:1059A0001A462A4B83F86A22274BD3E904230121A4
:1059B0000C46DDE9140102F089FF0346002B01D1FA
:1059C00000231C46E3B21A46204B83F86B221D4B82
:1059D000D3E964011B4BD3E9662302F081FF034640
:1059E000002B0BD1174B93ED667BB0EE470AF0EE20
:1059F000670A01F007FE0346002B05D0114BD3E9DF
:105A000064231049C1E966230E4BD3E966010D4BAF
:105A1000D3E9682302F064FF0346002B0BD1094B46
:105A200093ED687BB0EE470AF0EE670A01F0EAFDFD
:105A30000346002B0CD0034BD3E96623CDE9142396
:105A40000BE000BFD81B002038000020F021002010
:105A50009D4BD3E96823CDE914239C4BD3E90A235A
:105A600001210C46DDE9140102F030FF0346002B52
:105A700001D100231C46E3B21A46954B83F86C22F1
:105A8000924BD3E9082301210C46DDE9140102F011
:105A90001DFF0346002B01D100231C46E3B21A462A
:105AA0008B4B83F86D22884BD3E96A01874BD3E98E
:105AB0000C23012402F000FF0346002B01D1002338
:105AC0001C46E3B21A46824B83F86F227E4BD3E921
:105AD0003C237F49C1E900237B4BD3E93E237C492A
